:020000040800F2
:10000000F80B002091010008E91D0008E11D00081F
:10001000E51D000895060008012100080000000009
:10002000000000000000000000000000151E000895
:100030009906000800000000EB1D0008171E0008CC
:10004000A7010008A7010008A7010008A7010008F0
:10005000A7010008A7010008A7010008A7010008E0
:10006000A7010008A7010008A7010008A7010008D0
:10007000A7010008A7010008A7010008A7010008C0
:10008000A7010008A7010008A7010008A7010008B0
:10009000A7010008A7010008A70100089D060008A5
:1000A000A7010008A7010008A7010008A701000890
:1000B000A7010008A7010008A7010008A701000880
:1000C000A7010008A7010008A7010008A701000870
:1000D000A7010008DD200008A7010008A70100080B
:1000E000A7010008A7010008A701000800F002F816
:1000F00000F03FF80AA090E8000C82448344AAF183
:100100000107DA4501D100F034F8AFF2090EBAE880
:100110000F0013F0010F18BFFB1A43F0010318473B
:10012000CC2A0000EC2A0000103A24BF78C878C11D
:10013000FAD8520724BF30C830C144BF04680C60ED
:10014000704700000023002400250026103A28BF35
:1001500078C1FBD8520728BF30C148BF0B60704739
:10016000782900F06F80002070471FB51FBD10B5C3
:1001700010BD00F0F0F91146FFF7F7FF02F008FBA1
:1001800000F00EFA03B4FFF7F2FF03BC01F0DDFF4D
:1001900008480047FEE7FEE7FEE7FEE7FEE7FEE76A
:1001A000FEE7FEE7FEE7FEE703480449024A044B88
:1001B00070470000ED000008F8070020F80B002051
:1001C000F8070020704700000FB41CB5084B06AAC2
:1001D0007B4469460090059800F0A5F9044600208C
:1001E000694600F0B3F920461CBC5DF814FB000022
:1001F0007903000070B5044685690068C10601D521
:10020000302600E02026C00707D070BDD4E90121C8
:1002100030469047206A401C20626D1EF6D570BDA6
:1002200070B5044685690078C00707D170BDD4E970
:10023000012120209047206A401C20626D1EF6D5C7
:1002400070BD000070B504460D4621461068AFF33E
:1002500000802188090502D50F4A7A4402E00E4A3F
:100260007A440E32002104F1240305E000F00F0669
:100270000009965D5E54491C0028F7D120780023C0
:10028000000704D5702D02D009B102231132204697
:10029000BDE8704000F0E8B8542900002DE9F05F97
:1002A000894604464FF0000ADFF824B1FB44C0F849
:1002B00020A02046E168884700287DD0252806D068
:1002C000D4E901219047206A401C2062F1E7002513
:1002D0005F462046E16888472028064607DB312E26
:1002E00005D2B81910F8200C08B10543F1E7A807AA
:1002F00001D525F00405C4F81CA00027C4F818A0F7
:100300002A2E09D0304601F019FF38B304EB8708D4
:10031000303EC8F8186019E059F8041B204604EB79
:1003200087029161E1688847012F064618D1E0698C
:10033000002820DA25F020051DE0D8F8180000EB91
:10034000800006EB40003038C8F818002046E1680D
:100350008847064601F0F2FE0028EED1012F0AD0B0
:100360002E2E08D12046E16888477F1C0646022FC2
:1003700045F02005C4DBA069002803DA404245F0BF
:100380000105A061E80701D025F01005A6B1A6F18E
:100390004100192802D8203645F400654A46314606
:1003A000204625604D46FFF7DBFE60B1012807D0EF
:1003B000ED1D25F0070000E007E000F1080978E7EF
:1003C00005F1040975E730467AE7206ABDE8F09F39
:1003D0002A29000010B5431C02E010F8011B71B17E
:1003E0008107FAD14FF0013202C88C1A8C4314EA0B
:1003F000C211F9D0C01A0A0603D0C01E10BDC01A1F
:1004000010BD0A0401D0801E10BD0902FCD0401EA0
:1004100010BD4FF0000200B51346944696462039B1
:1004200022BFA0E80C50A0E80C50B1F12001BFF4AD
:10043000F7AF090728BFA0E80C5048BF0CC05DF813
:1004400004EB890028BF40F8042B08BF704748BF61
:1004500020F8022B11F0804F18BF00F8012B7047D5
:1004600070477047704770472DE9F0470D46994631
:100470009246044600F124080168880604D5E06924
:1004800021F01001216000E00120A84201DD471B9E
:1004900000E00027A1697A1902EB0900081AA0619F
:1004A0002078C00602D42046FFF7A4FE002608E00C
:1004B000D4E901211AF806009047206A401C761CF6
:1004C00020624E45F4DB2078C0060AD52046FFF7AF
:1004D00091FE06E0D4E9012130209047206A401CBB
:1004E0002062381EA7F10107F4DC07E0D4E90121FE
:1004F00018F805009047206A401C2062281EA5F1CC
:100500000105F3DC2046FFF78BFE2078000602D5BC
:100510000220BDE8F0870120FBE7000001694A1CCA
:1005200002610878704700B58FB0CDE90131002134
:10053000059105497944CDE9031011466846FFF756
:10054000ADFE0FB000BD0000E5FFFFFF0A6802F836
:10055000010B0A607047754600F02CF8AE460500A6
:100560006946534620F00700854618B020B5FFF7CE
:100570001BFEBDE820404FF000064FF000074FF093
:1005800000084FF0000B21F00701AC46ACE8C009B1
:10059000ACE8C009ACE8C009ACE8C0098D467047BA
:1005A00010B50446AFF300802046BDE81040FFF7C9
:1005B000E9BD0000004870479407002070B504466C
:1005C00000252068806800F00100F0B12068806894
:1005D00020F001002168886000F01EFD05460EE055
:1005E00000F01AFD401B022809D9A06A40F0100053
:1005F000A062E06A40F00100E062012070BD206866
:10060000806800F001000028EAD10020F6E7000031
:1006100038B504460025002000902068806800F06E
:10062000010080BB2068806840F00100216888607C
:10063000164800681649B0FBF1F0009002E00098FF
:10064000401E009000980028F9D100F0E5FC054616
:1006500013E000F0E1FC401B02280ED9A06A40F034
:100660001000A062E06A40F00100E06200BF0020DC
:1006700084F8240000BF012038BD2068806800F0A5
:1006800001000028E5D00020F6E70000000000206F
:1006900040420F0000BFFEE77047000010B5202069
:1006A00000F00EFB20200149086010BD1404014039
:1006B00038B5024600230020009000BF92F82400C5
:1006C000012801D1022038BD012082F8240000BF9A
:1006D0004868072812D21068406B0C79641E04EB3E
:1006E00084051F24AC40A0430D796D1E05EB8505E4
:1006F0000C68AC4020431468606327E048680D280C
:1007000012D21068006B0C79E41F04EB84051F24DF
:10071000AC40A0430D79ED1F05EB85050C68AC409E
:1007200020431468206311E01068C06A0C790D3C06
:1007300004EB84051F24AC40A0430D790D3D05EB6F
:1007400085050C68AC4020431468E06208680A28FC
:1007500012D31068C0680C780A3C04EB44050724E7
:10076000AC40A0430D780A3D05EB45058C68AC40D4
:1007700020431468E0600FE0106800690C7804EB17
:1007800044050724AC40A0430D7805EB45058C6873
:10079000AC402043146820610868102802D0086823
:1007A000112827D1174C1068A0421ED1106880680C
:1007B00000F40000F0B91068806840F4000014688C
:1007C000A0600868102815D10F4800680F4CB0FBD6
:1007D000F4F000EB80004000009002E00098401E22
:1007E000009000980028F9D104E0906A40F02000C1
:1007F0009062012300BF002082F8240000BF184649
:1008000061E70000002401400000002040420F008A
:1008100001460868C06C70472DE9F0410446002786
:1008200000250026A84614B90120BDE8F081A06883
:1008300010B1207D00B100BFA06A30B90020E06295
:1008400084F82400204600F089F82046FFF7B6FE21
:100850000746A06A00F01000002873D1002F71D164
:10086000A06A20F4885040F00200A062E16960684C
:100870000843217B40EA41000643A068B0F5807F31
:1008800002D0A068012802D14FF4807000E000205F
:100890000543207D012811D1207B38B9A069401E75
:1008A0004FF4006141EA4030054307E0A06A40F0A0
:1008B0002000A062E06A40F00100E0622068406829
:1008C00020F46940284321684860206880682149F5
:1008D0000840304321688860A068B0F5807F02D06E
:1008E000A068012802D14FF4807000E00020B0F52C
:1008F000807F03D1208A401E4FEA00582068C06ADA
:1009000020F4700040EA08002168C862206880680E
:1009100011490840B04208D10020E062A06A20F0EE
:10092000020040F00100A06211E0A06A20F0020085
:1009300040F01000A062E06A40F00100E062012790
:1009400005E0FFE7A06A40F01000A06201273846EA
:100950006BE70000FDF7E1FFFE0E1FFF7047000090
:10096000F8B504460D46002600200090002700F050
:1009700053FB06462068806800F4807050B1A06A7E
:1009800040F02000A06200BF002084F8240000BFD7
:100990000120F8BD2068406800F48070F8B9206834
:1009A000C06A00F47000D0B912E0681C80B125B1B3
:1009B00000F032FB801BA8420AD9A06A40F0040074
:1009C000A06200BF002084F8240000BF0320E0E7FD
:1009D0002068006800F002000028E6D050E0022005
:1009E00000F0CAFB36490968B1FBF0F021680969DB
:1009F000344A114091B92168C9689211114069B90E
:100A000021680969304A114031B92168C9689211D9
:100A1000114009B9142117E0292115E0216809695D
:100A2000294A114021B92168C9689211114041B188
:100A300021680969254A114029B92168C96811400E
:100A400009B9542100E0FC2100FB01F715E0681C06
:100A500080B125B100F0E0FA801BA8420AD9A06A53
:100A600040F00400A06200BF002084F8240000BF12
:100A700003208EE70098401C00900098B842E6D30F
:100A80006FF0120021680860A06A40F40070A06254
:100A90002068806800F46020B0F5602F0DD1207BC5
:100AA00058B9A06A20F48070A062A06A00F4805057
:100AB00018B9A06A40F00100A062002069E70000B8
:100AC00000000020244992249224491249922400D3
:100AD00070B50446002500BF94F82400012801D118
:100AE000022070BD012084F8240000BF2046FFF7DB
:100AF0008FFD0546002D77D1A06A40F20121884381
:100B000040F48070A0623C492068884208D13B488C
:100B1000006800F4702008B9012002E0002000E025
:100B2000012078B1A06A20F48010A062206840689B
:100B300000F4806000B3A06A20F4005040F48050BC
:100B4000A06219E0A06A40F48010A0622B49091F3E
:100B50002068884203D028492068884204D1274869
:100B6000006800F4806000E0002028B1A06A20F452
:100B7000005040F48050A062A06A00F4805020B180
:100B8000E06A20F00600E06201E00020E06200BFC1
:100B9000002084F8240000BFC01E2168086020687F
:100BA000806800F46020B0F5602F16D112492068EB
:100BB000884208D11148006800F4702008B901206B
:100BC00002E0002000E0012038B12068806840F495
:100BD000A000216888600CE006E02068806840F48E
:100BE00080102168886004E000BF002084F82400A1
:100BF00000BF284675E7000000280140042401409A
:100C000070B50446002594F82100022803D0042082
:100C1000A063012548E02068006820F00E002168EC
:100C200008602068006820F00100216808601F4902
:100C30002068884201D1012026E01C491431206837
:100C4000884201D110201FE01849283120688842CD
:100C500001D1801518E015493C312068884201D146
:100C6000801411E0114950312068884202D14FF4BC
:100C7000803009E00D4964312068884202D14FF488
:100C8000801001E04FF08070084908394860012069
:100C900084F8210000BF002084F8200000BF606BB2
:100CA00010B12046616B8847284670BD080002409D
:100CB000202802D10121014A11707047190000203B
:100CC00010B5044604480068204020B10248046082
:100CD0002046FFF7EDFF10BD140401402DE9F84751
:100CE0000346002294466EE14FF0010808FA02F430
:100CF000D1F8008008EA0400A0427DD1DFF8DCA230
:100D0000D1F80480A8EB0A09D0453AD014DCB8F138
:100D1000030F50D009DCB8F1000F31D0B8F1010F4A
:100D20001CD0B8F1020F49D120E0B8F1110F18D052
:100D3000B8F1120F42D11EE0B9F5881F25D006DCAC
:100D4000B9F5803F20D0B9F5801F37D11AE0B9F549
:100D5000001F18D0B9F5041F30D117E0D1F80CC02E
:100D60002DE0D1F80C8008F1040C28E0D1F80C80BB
:100D700008F1080C23E0D1F80C8008F10C0C1EE0FF
:100D800000BF00BF00BF00BF00BF00BFD1F8088098
:100D9000B8F1000F02D14FF0040C0BE0D1F808803D
:100DA000B8F1010F03D14FF0080C1C6102E04FF0C5
:100DB000080C5C6103E04FF0000C00E000BF00BFD6
:100DC000FF2801D8984601E003F104084646FF28B1
:100DD00002D84FEA820803E0A2F108084FEA880827
:100DE0004746D6F800804FF00F0909FA07F928EABC
:100DF00009080CFA07F900E088E048EA0908C6F893
:100E00000080D1F8048008F08058B8F1805F7DD16F
:100E100000BFDFF8CC81D8F8188048F00108DFF86F
:100E2000C091C9F81880C846D8F8188008F00108A1
:100E3000CDF8008000BF00BF4FEAB9384FEA9209F1
:100E400058F829504FEA82784FEA18794FF00F0886
:100E500008FA09F825EA0805DFF88881434502D138
:100E60004FF0000816E0DFF88081434502D14FF0D3
:100E700001080FE0DFF87481434502D14FF002080A
:100E800008E0DFF86C81434502D14FF0030801E030
:100E90004FF004084FEA82794FEA197908FA09F805
:100EA00048EA0505DFF84C814FEA920948F82950D5
:100EB000D1F8048008F48038B8F5803F0AD1DFF813
:100EC0003881D8F8008048EA0008DFF82C91C9F88A
:100ED000008009E0DFF82081D8F8008028EA0008C7
:100EE000DFF81491C9F80080D1F8048008F40038C4
:100EF000B8F5003F10D1DFF8008108F10408D8F8F8
:100F0000008048EA0008DFF8F09000E05AE009F1BC
:100F10000409C9F800800DE0DFF8DC8008F104085E
:100F2000D8F8008028EA0008DFF8CC9009F104091D
:100F3000C9F80080D1F8048008F48018B8F5801F43
:100F40000ED1DFF8B48008F10808D8F8008048EA2C
:100F50000008DFF8A49009F10809C9F800800DE045
:100F6000DFF8948008F10808D8F8008028EA000823
:100F7000DFF8849009F10809C9F80080D1F80480ED
:100F800008F40018B8F5001F0ED1DFF86C8008F1E6
:100F90000C08D8F8008048EA0008DFF85C9009F1F6
:100FA0000C09C9F800800DE0DFF84C8008F10C084E
:100FB000D8F8008028EA0008DFF83C9009F10C0915
:100FC000C9F80080521CD1F8008028FA02F8B8F164
:100FD000000F7FF489AEBDE8F88700000000111013
:100FE0000010024000080140000C014000100140C8
:100FF00000140140080001400004014002469368CB
:101000000B400BB1012000E0002070470AB10161E4
:1010100001E00B040361704701480068704700005D
:10102000100000200348006803490978084401497A
:1010300008607047100000201800002010B5084814
:10104000006840F0100006490860052000F080F8B4
:101050000F2000F007F800F02BF8002010BD000072
:101060000020024070B504460E4800784FF47A71B3
:10107000B1FBF0F00C490968B1FBF0F5284600F02F
:101080006FFC08B1012070BD102C07D20022214650
:10109000501E00F01EF80548046001E00120F2E750
:1010A0000020F0E7180000200000002014000020BD
:1010B000704701460846002809DB00F01F030122A3
:1010C0009A4043099B0003F1E023C3F8002100BFCD
:1010D00070472DE9F05F80460D461646002701F067
:1010E00011F8074639462A46334601F00700C0F199
:1010F000070ABAF1040F02D94FF0040A01E0C0F167
:10110000070AD14600F1040ABAF1070F02D24FF0E4
:10111000000A01E0A0F1030AD4464FF0010A0AFADE
:1011200009FAAAF1010A0AEA020A0AFA0CFA4FF0CD
:10113000010B0BFA0CFBABF1010B0BEA030B4AEAB8
:101140000B042146404600F0E5FFBDE8F09F00009B
:1011500000BF00F00702064B19684FF6FF03194065
:10116000044B0B4343EA0221014B196000BF704757
:101170000CED00E00000FA052DE9F04385B00646CD
:101180003BA30FCB01AC0FC43DA0006800904FF013
:101190000008002500270024A146012E30D0022E91
:1011A00055D0102E5ED137484468006800F080703A
:1011B00000B301A8C4F38341475C04F4803070B1EC
:1011C00030484068C0F340401DF8008004F480308F
:1011D00040B12D48B0FBF8F000FB07F502E02B48CA
:1011E00007FB00F52748406800F48000B0F5800F49
:1011F00001D1A94603E068000321B0FBF1F932E018
:101200002048046A04F44070B0F5807F05D104F0F2
:10121000020010B14FF4004918E004F44070B0F53A
:10122000007F07D11748406A00F0020010B149F66C
:1012300040490BE004F44070B0F5407F06D11148FE
:10124000006800F4003008B14FF224490BE000F0D0
:10125000FBF80C494968C1F38131491C4900B0FBD6
:10126000F1F900E000BF00BF484605B0BDE8F083DB
:1012700002030405060708090A0B0C0D0E0F1010D7
:10128000010200000010024000127A0000093D0037
:1012900070B504460D460CB9012070BD5A4800686F
:1012A00000F00700A8420ED25748006820F007005F
:1012B0002843554908600846006800F00700A84226
:1012C00001D00120E9E7207800F0020002281DD1BA
:1012D000207800F00400042805D14C48406840F410
:1012E000E0604A494860207800F00800082805D1ED
:1012F0004648406840F4605044494860434840686C
:1013000020F0F000A168084340494860207800F0D0
:10131000010078B36068012806D13C48006800F4F9
:10132000003090B90120B8E76068022806D137483C
:10133000006800F0007040B90120AEE73348006853
:1013400000F0020008B90120A7E73048406820F00B
:101350000300616808432D494860FFF75DFE0646BB
:1013600009E0FFF759FE801B41F28831884202D91B
:10137000032092E707E02548406800F00C00616810
:10138000B0EB810FEDD12048006800F00700A842C3
:101390000ED91D48006820F0070028431A4908604C
:1013A0000846006800F00700A84201D0012074E759
:1013B000207800F00400042807D11448406820F485
:1013C000E060E168084311494860207800F00800B7
:1013D000082808D10D48406820F46050216940EA8F
:1013E000C1000A49486000F03FF808494968C1F364
:1013F0000311074A515CC840064908600648006866
:10140000FFF730FE002048E70020024000100240B5
:101410009A2B0008000000201400002001480068FA
:10142000704700000000002000B5FFF7F7FF0449F7
:101430004968C1F30221034A515CC84000BD000065
:1014400000100240AA2B000800B5FFF7E7FF04498F
:101450004968C1F3C221034A515CC84000BD000085
:1014600000100240AA2B0008F0B585B00FF26C0CFA
:101470009CE8E01001A8A0E8E0101CA52D680095EC
:1014800000210022002300240020194D696801F08A
:101490000C05F5B1042D02D0082D19D101E0154835
:1014A00019E001ADC1F38346AC5D01F4803555B15F
:1014B0000F4D6D68C5F340451DF805200D4D654382
:1014C000B5FBF2F302E00C4D04FB05F3184602E015
:1014D00000BF084800BF00BF05B0F0BD020304050F
:1014E000060708090A0B0C0D0E0F10100102000070
:1014F0000010024000127A0000093D00F8B50446D1
:101500000CB90120F8BD207800F00100002878D047
:10151000F848406800F00C0004280CD0F5484068FA
:1015200000F00C00082811D1F248406800F4803027
:10153000B0F5803F0AD1EF48006800F40030002881
:101540005FD0606800285CD10120DBE700BF6068E5
:10155000B0F5803F06D1E748006840F48030E549A7
:10156000086028E0606858B9E248006820F48030DC
:10157000E04908600846006820F4802008601AE00E
:101580006068B0F5A02F0BD1DA48006840F48020E5
:10159000D84908600846006840F4803008600AE0D6
:1015A000D448006820F48030D249086008460068BA
:1015B00020F48020086000BF606888B1FFF72CFD30
:1015C000054606E0FFF728FD401B642801D90320EB
:1015D00098E7C848006800F400300028F2D010E016
:1015E000FFF71AFD054606E0FFF716FD401B6428CD
:1015F00001D9032086E7BF48006800F400300028C6
:10160000F2D1207800F00200022857D1B948406892
:1016100000F00C0050B1B748406800F00C000828FA
:1016200018D1B448406800F4803098B9B1480068D7
:1016300000F0020020B12069012801D0012061E7FB
:10164000AC48006820F0F800616940EAC100A9498F
:10165000086033E02069E8B10120A7490860FFF77E
:10166000DBFC054606E0FFF7D7FC401B022801D94A
:10167000032047E79F48006800F002000028F2D0EE
:101680009C48006820F0F800616940EAC10099496F
:10169000086013E0002098490860FFF7BDFC05468C
:1016A00006E0FFF7B9FC401B022801D9032029E717
:1016B0009048006800F002000028F2D1207800F085
:1016C000080008282DD1A069B8B101208B49086015
:1016D000FFF7A2FC054606E0FFF79EFC401B022830
:1016E00001D903200EE78348406A00F00200002879
:1016F000F2D0012000F07AFB13E000207F4908605F
:10170000FFF78AFC054606E0FFF786FC401B02282F
:1017100001D90320F6E67748406A00F0020000286D
:10172000F2D1207800F00400042873D1002771481A
:10173000C06900F0805070B900BF6E48C06940F0C9
:1017400080506C49C8610846C06900F08050009024
:1017500000BF00BF01276A48006800F48070B0B97C
:101760006748006840F4807065490860FFF754FCE2
:10177000054606E0FFF750FC401B642801D9032012
:10178000C0E65F48006800F480700028F2D000BF17
:10179000E068012806D15748006A40F00100554929
:1017A000086227E0E06858B95248006A20F001005A
:1017B000504908620846006A20F00400086219E0F7
:1017C000E06805280BD14B48006A40F00400494905
:1017D00008620846006A40F0010008620AE04548D5
:1017E000006A20F00100434908620846006A20F0C0
:1017F0000400086200BFE068A0B1FFF70DFC0546D9
:1018000009E0FFF709FC401B41F28831884202D908
:10181000032077E622E03748006A00F00200002843
:10182000EFD012E0FFF7F8FB054608E0FFF7F4FB06
:10183000401B41F28831884201D9032062E62D48DD
:10184000006A00F002000028F0D1012F05D12948DC
:10185000C06920F080502749C86100BFE069C8B363
:101860002448406800F00C00082860D0E069022895
:1018700048D1002020490866FFF7CEFB054606E068
:10188000FFF7CAFB401B022801D903203AE619489A
:10189000006800F000700028F2D1206AB0F5803FA7
:1018A00007D11448406820F40030A168084311496A
:1018B0004860D4E9080108430E49496821F47411CD
:1018C00008430C49486001200B490866FFF7A4FB58
:1018D000054607E03DE0FFF79FFB401B022801D9CA
:1018E00003200FE60348006800F000700028F2D0E3
:1018F0002FE00000001002400000424280044242FB
:1019000000700040002014490866FFF785FB05467B
:1019100006E0FFF781FB401B022801D90320F1E517
:101920000E48006800F000700028F2D111E0E06974
:10193000012800D1E6E50948466806F48031206AAE
:10194000814204D106F47011606A814201D0012005
:10195000D8E50020D6E50000000042420010024019
:1019600070B504462546681EB0F1807F01D3012082
:101970000FE0681E4FF0E02148610F214FF0FF306B
:1019800000F0C8FB00204FF0E021886107200861CB
:10199000002070BD704700002DE9F0470446206824
:1019A00005682068C668206847694FF00008C1468E
:1019B00005F00F08B8F1000F0AD105F0200038B18A
:1019C00006F0200020B1204600F053FABDE8F08771
:1019D000B8F1000F71D007F0010018B906F490704B
:1019E00000286AD005F0010030B106F4807018B10B
:1019F000E06B40F00100E06305F0040030B107F057
:101A0000010018B1E06B40F00200E06305F0020055
:101A100030B107F0010018B1E06B40F00400E06362
:101A200005F0080048B106F0200010B907F00100E9
:101A300018B1E06B40F00800E063E06B68B305F0BC
:101A4000200028B106F0200010B1204600F011FA65
:101A500020684069C0F38019E06B00F0080010B9FD
:101A6000B9F1000F22D0204600F0E3F92068406968
:101A700000F04000B0B12068406920F040002168CB
:101A80004861606B50B11848616B4863606BFFF749
:101A9000B7F810B1606B416B88470CE02046FFF748
:101AA00079FF08E02046FFF775FF04E02046FFF7C6
:101AB00071FF0020E06389E7FFE705F0800030B1A7
:101AC00006F0800018B1204600F0A2FA7EE705F08B
:101AD000400030B106F0400018B1204600F0B9F9DE
:101AE00074E700BF72E700001F1E000810B504462F
:101AF0000CB9012010BDA06900B100E000BF94F84E
:101B0000390028B9002084F83800204600F028F871
:101B1000242084F839002068C06820F4005021682F
:101B2000C860204600F0F6F92068006920F4904073
:101B3000216808612068406920F02A002168486116
:101B40002068C06840F400502168C8600020E0634D
:101B5000202084F8390084F83A000020CAE7000009
:101B600010B586B004462849206888424AD100BF93
:101B700000BF2648806940F0040024498861084677
:101B8000806900F00400019000BF00BF00BF00BFEB
:101B900000BF0846806940F00400886108468069FB
:101BA00000F00400019000BF00BF00BF00BF00BFF5
:101BB0000846806940F4804088610846806900F4E6
:101BC0008040019000BF00BF00BF48150290022076
:101BD0000390012004900320059002A90C48FFF710
:101BE0007DF84FF4806002900020039002A908481D
:101BF000FFF774F82520FFF75CFA03221146252031
:101C0000FFF767FA06B010BD00380140001002402F
:101C10000008014010B5034693F83A0020282FD160
:101C200001B10AB9012010BD00BF93F838000128A6
:101C300001D10220F7E7012083F8380000BF996244
:101C40009A85DA850020D863222083F83A0000BF05
:101C5000002083F8380000BF1868C06840F4807026
:101C60001C68E0601868406940F001001C68606111
:101C70001868C06840F020001C68E0600020D2E7CF
:101C80000220D0E71D4A0168914236D11C490988DB
:101C900001F4004189BB1A49098801F4804171B1FE
:101CA000184909780A2903D00021154A118024E037
:101CB0001349098841F40041114A11801DE011497E
:101CC00009780D2906D10E49098841F480410C4A52
:101CD000118012E00B490978094A1288C2F30D02FB
:101CE000094B995406490988491C054A1180114637
:101CF0000988C72901DD00211180704700380140A3
:101D00000C0000200E0000208C0600202DE9F84F6A
:101D100004460E46174699464FF0000A94F83900DB
:101D200020285AD106B117B90120BDE8F88F00BFAD
:101D300094F83800012801D10220F6E7012084F848
:101D4000380000BF0020E063212084F83900FFF74D
:101D500063F98246A784E784A068B0F5805F04D168
:101D6000206910B90025B04602E035464FF0000862
:101D700000BF002084F8380000BF1BE0534600225B
:101D800080212046CDF8009000F072F908B10320C0
:101D9000CBE745B9B8F80000C0F3080021684860F7
:101DA00008F1020803E02878216848606D1CE08C87
:101DB000401EE084E08C0028E0D153460022402100
:101DC0002046CDF8009000F053F908B10320ACE7AD
:101DD000202084F839000020A7E70220A5E77047FB
:101DE00000BFFEE700BFFEE77047704708B508492F
:101DF0000968C9084FF47A72B1FBF2F141430091CE
:101E000000BF00BF00994A1E00920029F9D108BD09
:101E100000000020704710B5FFF704F910BD70B541
:101E200005466C6A0020E085E0842046FFF7B2FD9D
:101E300070BD0168C96821F490710268D1600168C1
:101E4000496921F0010102685161202180F83A10AE
:101E5000704710B504462068C06820F04000216833
:101E6000C860202084F839002046FFF7B8FF002022
:101E700010BD70B5044694F83A00222847D1A068F6
:101E8000B0F5805F0CD1206950B90025A66A2068A2
:101E90004068C0F308003080A06A801CA06215E092
:101EA000A56A0026A068B0F5805F03D0A06828B9B5
:101EB000206918B920684068287004E020684068EC
:101EC00000F07F002870A06A401CA062E08D401ED8
:101ED00080B2E085C8B92068C06820F02000216881
:101EE000C8602068C06820F480702168C8602068DD
:101EF000406920F0010021684861202084F83A0000
:101F00002046FFF7BFFE002070BD0020FCE7022046
:101F1000FAE7000070B504462168096921F44051D0
:101F2000E2681143226811612269A1681143626964
:101F300041EA02052168C96841F20C6291432943D4
:101F40002268D1602168496921F44071A269114376
:101F5000226851612D4A2168914202D1FFF774FA3B
:101F600001E0FFF761FA00EBC00101EB00116268CC
:101F70009200B1FBF2F100EBC00202EB00126368C9
:101F80009B00B2FBF3F26423B2FBF3F202EBC20359
:101F900003EB0212A1EB8201322202EB0111642257
:101FA000B1FBF2F101F0F00100EBC00202EB001214
:101FB00063689B00B2FBF3F26423B2FBF3F201EB24
:101FC000021200EBC00101EB001163689B00B1FB42
:101FD000F3F100EBC00303EB00136668B600B3FB3C
:101FE000F6F36426B3FBF6F303EBC30606EB031329
:101FF000A1EB8301322303EB01116423B1FBF3F165
:1020000001F00F0111442268916070BD0038014059
:10201000014691F83900212828D18868B0F5805F01
:102020000BD1086948B90A6A1088C0F308000B6828
:102030005860086A801C086205E00B6A581C086238
:1020400018780B685860C88C401E80B2C88458B994
:102050000868C06820F080000B68D8600868C06815
:1020600040F040000B68D860002070470220FCE779
:102070002DE9F04104460D4617469846069E21E09C
:10208000701CF8B12EB1FEF7C7FFA0EB0800B042FC
:1020900018D92068C06820F4D0702168C860206812
:1020A000406920F0010021684861202084F839004F
:1020B00084F83A0000BF002084F8380000BF0320F5
:1020C000BDE8F081206800682840A84201D10120C5
:1020D00000E00020B842D3D00020F1E710B5064858
:1020E000FFF75AFC00BF012204490348FFF792FDA5
:1020F0000028F8D110BD0000540700200E00002079
:1021000000BFFEE702480068C0F3022070470000ED
:102110000CED00E010B5002804DB0A07130E054A99
:10212000135406E00A07140E034A00F00F031B1FA6
:10213000D45410BD00E400E018ED00E030380A2867
:1021400001D2012070470020704700BF7047000097
:1021500000B589B000BF2248806940F004002049E2
:1021600088610846806900F00400019000BF00BF4C
:1021700000BF0846806940F40070886108468069A5
:1021800000F40070019000BF00BF01200590032003
:10219000069005A91348FEF7A1FD134813490860EE
:1021A000002112488160017301754FF46021C16103
:1021B00000200E49486001210C480161FEF72CFB0C
:1021C00000200290039004900290012003900720C9
:1021D000049002A90548FEF76BFA09B000BD0000A3
:1021E0000010024000080140002401401C000020B3
:1021F00010B50648FEF76CFC0A210448FEF7B0FB58
:102200000248FEF705FB80B210BD00001C00002054
:102210007CB504460D46002000F086F8012000F051
:1022200083F806226946072000F0ABF89DF800000D
:1022300000049DF8011040EA01209DF802100843B7
:10224000C0F3110020609DF8030000049DF8041005
:1022500040EA01209DF805100843C0F311002860F2
:102260007CBD000000B585B000BF00BF2B48806971
:1022700040F00800294988610846806900F008009C
:10228000009000BF00BF00BF2020019024480290B2
:102290000120039001A92348FEF720FD022200211E
:1022A0001720FEF716FF1720FEF703FF00F038F99E
:1022B00000F0A3F8C021022000F0A8F800210320BC
:1022C00000F0A4F80021042000F0A0F8002105206F
:1022D00000F09CF80021062000F098F84F2108201B
:1022E00000F094F80321092000F090F82A210A2038
:1022F00000F08CF82F210C2000F088F82F210D2001
:1023000000F084F8642000F0AFF8002000F00CF832
:10231000012000F009F805B000BD000000100240E7
:1023200000002110000C014070B50446002500F0AB
:10233000B7F9AE2000F07EF900F0F8F918B100F01E
:10234000D5F9002070BD204600F074F900F0EEF9D8
:1023500018B100F0CBF90020F4E700F0A1F9AF20AC
:1023600000F068F900F0E2F918B100F0BFF90020C0
:10237000E8E7002000F030F9054600F0B7F92846FC
:10238000E0E72DE9F04107460E46154600F088F9D2
:10239000AE2000F04FF900F0C9F920B100F0A6F925
:1023A0000120BDE8F081384600F044F900F0BEF9A4
:1023B00018B100F09BF90120F3E700F071F9AF20AC
:1023C00000F038F900F0B2F918B100F08FF90120EF
:1023D000E7E700240BE0691EA14201D0012100E0E3
:1023E0000021084600F0F8F83055601CC4B2AC4239
:1023F000F1DB00F07BF90020D3E710B54021092084
:1024000000F004F80A2000F02FF810BD70B5054662
:102410000C4600F045F9AE2000F00CF900F086F90A
:1024200018B100F063F9012070BD284600F002F9F0
:1024300000F07CF918B100F059F90120F4E72046CA
:1024400000F0F8F800F072F918B100F04FF901202F
:10245000EAE700F04BF90020E6E7000001490860D8
:10246000704700000400002010B504464FF47A7154
:1024700004FB01F000F002F810BD000070B5034647
:1024800000224FF0E02675690D4E366803FB06F416
:102490004FF0E026B16910E04FF0E026B0698842C5
:1024A0000BD0884202D20E1A324402E02E1A0E4499
:1024B00032440146A24200D300E0EDE700BF70BD08
:1024C0000400002010B500BF002208211048FEF7CC
:1024D0009DFD00BF00F01EF800BF012204210C4842
:1024E000FEF794FD00BF00F015F800BF00220421A4
:1024F0000748FEF78BFD00BF00F00CF800BF01227B
:1025000008210348FEF782FD00BF00F003F810BD6C
:102510000008014010B50220FFF7B0FF10BD000019
:1025200000B585B000BF00BF1948806940F00400C5
:10253000174988610846806900F00400009000BFD8
:1025400000BF00BF00BF00BF0846806940F0040024
:1025500088610846806900F00400009000BF00BF59
:1025600000BF0420019001200290039003200490FA
:1025700001A90848FEF7B2FB082001901120029043
:1025800001A90448FEF7AAFB00F0B0F805B000BDB1
:10259000001002400008014010B500BF01220821D0
:1025A0000C48FEF733FD00BFFFF7B4FF00BF012268
:1025B00004210848FEF72AFD00BFFFF7ABFF00BF6C
:1025C000002204210348FEF721FD00BFFFF7A2FF10
:1025D00010BD00000008014070B50546002400262B
:1025E0001CE06006040E00BF012204211048FEF723
:1025F0000DFD00BFFFF78EFF08210D48FEF7FEFC22
:1026000008B1601CC4B200BF002204210848FEF7D4
:10261000FDFC00BFFFF77EFF701CC6B2082EE0DB9A
:1026200015B9FFF7B9FF01E0FFF74CFF204670BD79
:102630000008014070B50446002524E000BFE00911
:1026400028B1012208211548FEF7E0FC04E0002231
:1026500008211248FEF7DAFC00BFFFF75BFF00BF5E
:10266000012204210D48FEF7D1FC00BFFFF752FF05
:1026700000BF002204210948FEF7C8FC00BF600625
:10268000040E681CC5B2082DD8DB00BF012208214A
:102690000248FEF7BBFC00BF70BD0000000801400F
:1026A00010B500BF012208210F48FEF7AFFC00BFA4
:1026B00000BF012204210C48FEF7A8FC00BFFFF771
:1026C00029FF00BF002208210748FEF79FFC00BF3A
:1026D000FFF720FF00BF002204210348FEF796FC0D
:1026E00000BFFFF717FF10BD0008014010B500BF85
:1026F000002208210C48FEF789FC00BFFFF70AFF03
:1027000000BF012204210848FEF780FC00BFFFF74C
:1027100001FF00BF012208210348FEF777FC00BF3C
:10272000FFF7F8FE10BD00000008014070B500245E
:10273000002500BF012208211448FEF767FC00BFF6
:10274000FFF7E8FE00BF012204211048FEF75EFCFF
:1027500000BFFFF7DFFE07E0601CC4B2FA2C03DD08
:10276000FFF7C4FF012505E008210848FEF746FCF5
:102770000028F1D100BF00BF002204210348FEF76A
:1027800045FC00BFFFF7C6FE284670BD00080140AB
:102790009EB0002500201B90002780461A901790BD
:1027A0001890199014901590169081460026844830
:1027B0001390400C12904FF0000A002011901090DE
:1027C000FEF73CFC4FF4E01000F08AF94820FFF7D8
:1027D00045FE4FF4E13000F0B7F97AA000F070F94F
:1027E000FFF7B6FC7AA000F06BF9FFF73BFD7BA08A
:1027F00000F066F9FF20FFF797FD0F907DA107A875
:102800000F9AFDF7E1FC0690069882B2642307A9AF
:102810007D48FFF77BFA0020FFF786FD0120FFF7D8
:1028200083FD4FF448717948FDF7F3FD4FF448718B
:102830007748FDF7EEFDC2E07648007828B9202100
:102840007548FEF7DBFB00287ED100207149087037
:102850001CA91DA8FFF7DCFC1A98B0F5C87F04DAA4
:102860001A98401C80B21A90A9E01B9840B16748A2
:1028700050F825003F1A664850F82500A8EB0008DC
:1028800062491D9841F8250061491C9841F82500CE
:102890001D9807441C988044681C85B2C82D02DB33
:1028A000002501201B901B9800B988E0C820B7FBC9
:1028B000F0F00590C820B8FBF0F004901D99059841
:1028C0000C1A1C990498A1EB000B17A840F829409A
:1028D00014A840F829B009F10100032190FBF1F29E
:1028E00001FB120000F0FF09032E01DA701CC6B2D2
:1028F00000200390029000BF0DE017A951F820209E
:1029000003991144039114A951F82020029911440C
:102910000291411CC8B2B042EFDB039890FBF6F481
:10292000029890FBF6FBFFF763FC01902246012022
:10293000019900F091F832209AFBF0F100FB11A010
:1029400030B95A46214600E038E0042000F084F80F
:102950001398844200DD13941298844200DA129492
:102960000AF101001FFA80FABAF1C80F25DBDDE990
:102970001210401A0090009832280EDA1198401C6C
:10298000C0B211901198022810DB109870B923A0E2
:1029900000F096F80120109008E0002011901098A7
:1029A00020B125A000F08CF800201090044813906E
:1029B000400C12904FF0000A00BF00BF00BF3BE781
:1029C0000080FFFF55415254204F4B0D0A0000007C
:1029D000414443204F4B0D0A000000004D41583345
:1029E0003031303220494E495420444F4E450D0A73
:1029F00000000000504152545F49443D307825307A
:102A000032580D0A00000000540700204C0000203E
:102A10006C03002019000020000C01405B414C4178
:102A2000524D5D20505047207369676E616C206C79
:102A30006F73740D0A0000005B494E464F5D2050D5
:102A40005047207369676E616C207265636F7665AD
:102A50007265640D0A000000FEB506460C46154678
:102A6000AA208DF8000055208DF801008DF8026035
:102A7000E0B28DF80300200A8DF80400200C8DF8D8
:102A80000500200E8DF80600E8B28DF80700280A30
:102A90008DF80800280C8DF80900280E8DF80A0022
:102AA0000B21684600F06CF88DF80B0014230C2203
:102AB00069460248FFF72AF9FEBD000054070020CE
:102AC00070B504462046FDF785FC85B264232A468E
:102AD00021460248FFF71AF970BD00005407002094
:102AE00030B58FB005460124282105A8FDF791FCDB
:102AF00014216846FDF78DFC012005900004069026
:102B00000020079002200C90C1030D910E9505A89E
:102B1000FEF7F4FC04460CB100BFFEE70F20009066
:102B200002200190002002904FF48060039000206A
:102B3000049002216846FEF7ABFB04460CB100BFCF
:102B4000FEE70FB030BD000010B5044609480A4941
:102B500008600846446000218160C16001618161B4
:102B60000C214161FEF7C2FF012204490248FFF730
:102B700051F810BD00380140540700200E0000201D
:102B800010B502460B460020002103E0545C604073
:102B90004C1CE1B29942F9DB10BD000000000000BE
:102BA00000000102030406070809000000000102FA
:102BB00003043031323334353637383941424344F7
:102BC00045464030580030313233343536373839A5
:102BD00061626364656640307800040000080000AC
:102BE0000000000000020001000010000C2C000892
:102BF000000000201C00000028010008282C00080C
:102C00001C000020DC0B0000440100080024F4003C
:102C100000000000000000000000000000000000B4
:082C200010000000010000009B
:04000005080000ED02
:00000001FF
